{
  "_format": "hh-sol-artifact-1",
  "contractName": "Lock",
  "sourceName": "contracts/Lock.sol",
  "abi": [
    {
      "inputs": [],
      "stateMutability": "nonpayable",
      "type": "constructor"
    },
    {
      "inputs": [
        {
          "internalType": "address",
          "name": "",
          "type": "address"
        }
      ],
      "name": "amount",
      "outputs": [
        {
          "internalType": "uint256",
          "name": "",
          "type": "uint256"
        }
      ],
      "stateMutability": "view",
      "type": "function"
    },
    {
      "inputs": [],
      "name": "getAddress",
      "outputs": [
        {
          "internalType": "address",
          "name": "",
          "type": "address"
        }
      ],
      "stateMutability": "view",
      "type": "function"
    },
    {
      "inputs": [],
      "name": "makeOwner",
      "outputs": [],
      "stateMutability": "nonpayable",
      "type": "function"
    },
    {
      "inputs": [],
      "name": "mint",
      "outputs": [],
      "stateMutability": "payable",
      "type": "function"
    },
    {
      "inputs": [
        {
          "internalType": "uint256",
          "name": "",
          "type": "uint256"
        }
      ],
      "name": "owner",
      "outputs": [
        {
          "internalType": "address",
          "name": "",
          "type": "address"
        }
      ],
      "stateMutability": "view",
      "type": "function"
    }
  ],
  "bytecode": "0x608060405234801561001057600080fd5b506000339080600181540180825580915050600190039060005260206000200160009091909190916101000a81548173ffffffffffffffffffffffffffffffffffffffff021916908373ffffffffffffffffffffffffffffffffffffffff1602179055506107f3806100836000396000f3fe60806040526004361061004a5760003560e01c80631249c58b1461004f57806338cc48311461005957806370d5d40b14610084578063a123c33e1461009b578063b9f0bf66146100d8575b600080fd5b610057610115565b005b34801561006557600080fd5b5061006e6101b2565b60405161007b9190610488565b60405180910390f35b34801561009057600080fd5b50610099610308565b005b3480156100a757600080fd5b506100c260048036038101906100bd91906104de565b6103f0565b6040516100cf9190610488565b60405180910390f35b3480156100e457600080fd5b506100ff60048036038101906100fa9190610537565b61042f565b60405161010c9190610573565b60405180910390f35b6107d034101561015a576040517f08c379a0000000000000000000000000000000000000000000000000000000008152600401610151906105eb565b60405180910390fd5b60018060003373ffffffffffffffffffffffffffffffffffffffff1673ffffffffffffffffffffffffffffffffffffffff16815260200190815260200160002060008282546101a9919061063a565b92505081905550565b6000806000905060005b6000805490508111610254573373ffffffffffffffffffffffffffffffffffffffff16600082815481106101f3576101f261066e565b5b9060005260206000200160009054906101000a900473ffffffffffffffffffffffffffffffffffffffff1673ffffffffffffffffffffffffffffffffffffffff160361024157809150610254565b808061024c9061069d565b9150506101bc565b503373ffffffffffffffffffffffffffffffffffffffff16600082815481106102805761027f61066e565b5b9060005260206000200160009054906101000a900473ffffffffffffffffffffffffffffffffffffffff1673ffffffffffffffffffffffffffffffffffffffff1614610301576040517f08c379a00000000000000000000000000000000000000000000000000000000081526004016102f890610731565b60405180910390fd5b3391505090565b6003600160003373ffffffffffffffffffffffffffffffffffffffff1673ffffffffffffffffffffffffffffffffffffffff16815260200190815260200160002054101561038b576040517f08c379a00000000000000000000000000000000000000000000000000000000081526004016103829061079d565b60405180910390fd5b6000339080600181540180825580915050600190039060005260206000200160009091909190916101000a81548173ffffffffffffffffffffffffffffffffffffffff021916908373ffffffffffffffffffffffffffffffffffffffff160217905550565b6000818154811061040057600080fd5b906000526020600020016000915054906101000a900473ffffffffffffffffffffffffffffffffffffffff1681565b60016020528060005260406000206000915090505481565b600073ffffffffffffffffffffffffffffffffffffffff82169050919050565b600061047282610447565b9050919050565b61048281610467565b82525050565b600060208201905061049d6000830184610479565b92915050565b600080fd5b6000819050919050565b6104bb816104a8565b81146104c657600080fd5b50565b6000813590506104d8816104b2565b92915050565b6000602082840312156104f4576104f36104a3565b5b6000610502848285016104c9565b91505092915050565b61051481610467565b811461051f57600080fd5b50565b6000813590506105318161050b565b92915050565b60006020828403121561054d5761054c6104a3565b5b600061055b84828501610522565b91505092915050565b61056d816104a8565b82525050565b60006020820190506105886000830184610564565b92915050565b600082825260208201905092915050565b7f6e6f7420616e6f7574682066756e647300000000000000000000000000000000600082015250565b60006105d560108361058e565b91506105e08261059f565b602082019050919050565b60006020820190508181036000830152610604816105c8565b9050919050565b7f4e487b7100000000000000000000000000000000000000000000000000000000600052601160045260246000fd5b6000610645826104a8565b9150610650836104a8565b92508282019050808211156106685761066761060b565b5b92915050565b7f4e487b7100000000000000000000000000000000000000000000000000000000600052603260045260246000fd5b60006106a8826104a8565b91507fffffffffffffffffffffffffffffffffffffffffffffffffffffffffffffffff82036106da576106d961060b565b5b600182019050919050565b7f6e6f7420616e206f776e65722100000000000000000000000000000000000000600082015250565b600061071b600d8361058e565b9150610726826106e5565b602082019050919050565b6000602082019050818103600083015261074a8161070e565b9050919050565b7f6572726f72000000000000000000000000000000000000000000000000000000600082015250565b600061078760058361058e565b915061079282610751565b602082019050919050565b600060208201905081810360008301526107b68161077a565b905091905056fea2646970667358221220b1f1c48a4bc83b79e8745dfbc11408cd79c0403dfbba2b47fdfe83fb728422bf64736f6c63430008110033",
  "linkReferences": {},
  "deployedLinkReferences": {}
}